{
  "contractName": "Election",
  "abi": [
    {
      "inputs": [
        {
          "internalType": "address",
          "name": "forwarder_",
          "type": "address"
        }
      ],
      "stateMutability": "nonpayable",
      "type": "constructor"
    },
    {
      "inputs": [
        {
          "internalType": "uint256",
          "name": "",
          "type": "uint256"
        }
      ],
      "name": "candidats",
      "outputs": [
        {
          "internalType": "uint256",
          "name": "num",
          "type": "uint256"
        },
        {
          "internalType": "string",
          "name": "nom",
          "type": "string"
        },
        {
          "internalType": "uint256",
          "name": "nbrVotes",
          "type": "uint256"
        }
      ],
      "stateMutability": "view",
      "type": "function",
      "constant": true
    },
    {
      "inputs": [
        {
          "internalType": "address",
          "name": "",
          "type": "address"
        }
      ],
      "name": "citoyens",
      "outputs": [
        {
          "internalType": "bool",
          "name": "aVote",
          "type": "bool"
        },
        {
          "internalType": "uint256",
          "name": "vote",
          "type": "uint256"
        },
        {
          "internalType": "bool",
          "name": "autorise",
          "type": "bool"
        }
      ],
      "stateMutability": "view",
      "type": "function",
      "constant": true
    },
    {
      "inputs": [],
      "name": "dateDebut",
      "outputs": [
        {
          "internalType": "uint256",
          "name": "",
          "type": "uint256"
        }
      ],
      "stateMutability": "view",
      "type": "function",
      "constant": true
    },
    {
      "inputs": [],
      "name": "dateFin",
      "outputs": [
        {
          "internalType": "uint256",
          "name": "",
          "type": "uint256"
        }
      ],
      "stateMutability": "view",
      "type": "function",
      "constant": true
    },
    {
      "inputs": [
        {
          "internalType": "address",
          "name": "forwarder",
          "type": "address"
        }
      ],
      "name": "isTrustedForwarder",
      "outputs": [
        {
          "internalType": "bool",
          "name": "",
          "type": "bool"
        }
      ],
      "stateMutability": "view",
      "type": "function",
      "constant": true
    },
    {
      "inputs": [],
      "name": "nbrCandidats",
      "outputs": [
        {
          "internalType": "uint256",
          "name": "",
          "type": "uint256"
        }
      ],
      "stateMutability": "view",
      "type": "function",
      "constant": true
    },
    {
      "inputs": [],
      "name": "owner",
      "outputs": [
        {
          "internalType": "address",
          "name": "",
          "type": "address"
        }
      ],
      "stateMutability": "view",
      "type": "function",
      "constant": true
    },
    {
      "inputs": [],
      "name": "totalVotes",
      "outputs": [
        {
          "internalType": "uint256",
          "name": "",
          "type": "uint256"
        }
      ],
      "stateMutability": "view",
      "type": "function",
      "constant": true
    },
    {
      "inputs": [],
      "name": "trustedForwarder",
      "outputs": [
        {
          "internalType": "address",
          "name": "",
          "type": "address"
        }
      ],
      "stateMutability": "view",
      "type": "function",
      "constant": true
    },
    {
      "inputs": [],
      "name": "versionRecipient",
      "outputs": [
        {
          "internalType": "string",
          "name": "",
          "type": "string"
        }
      ],
      "stateMutability": "view",
      "type": "function",
      "constant": true
    },
    {
      "inputs": [
        {
          "internalType": "address",
          "name": "_personne",
          "type": "address"
        }
      ],
      "name": "donnerDroitDeVote",
      "outputs": [],
      "stateMutability": "nonpayable",
      "type": "function"
    },
    {
      "inputs": [
        {
          "internalType": "uint256",
          "name": "_bulletinNum",
          "type": "uint256"
        }
      ],
      "name": "voter",
      "outputs": [],
      "stateMutability": "nonpayable",
      "type": "function"
    }
  ],
  "bytecode": "0x60806040526040518060400160405280600581526020017f322e322e300000000000000000000000000000000000000000000000000000008152506001908051906020019062000051929190620002f2565b503480156200005f57600080fd5b50604051620012c5380380620012c58339818101604052810190620000859190620003b9565b806000806101000a81548173ffffffffffffffffffffffffffffffffffffffff021916908373ffffffffffffffffffffffffffffffffffffffff160217905550620000d5620001cb60201b60201c565b600260006101000a81548173ffffffffffffffffffffffffffffffffffffffff021916908373ffffffffffffffffffffffffffffffffffffffff1602179055506360d0aefb6007819055506305f5e10042620001329190620003eb565b6008819055506200017e6040518060400160405280600f81526020017f456d6d616e75656c204d6163726f6e00000000000000000000000000000000008152506200021360201b60201c565b620001c46040518060400160405280600d81526020017f4d6172696e65204c652050656e000000000000000000000000000000000000008152506200021360201b60201c565b5062000587565b60006014600036905010158015620001f05750620001ef336200029960201b60201c565b5b156200020657601436033560601c90506200020f565b33905062000210565b5b90565b600660008154809291906200022890620004bc565b919050555060405180606001604052806006548152602001828152602001600081525060056000600654815260200190815260200160002060008201518160000155602082015181600101908051906020019062000288929190620002f2565b506040820151816002015590505050565b60008060009054906101000a900473ffffffffffffffffffffffffffffffffffffffff1673ffffffffffffffffffffffffffffffffffffffff168273ffffffffffffffffffffffffffffffffffffffff16149050919050565b828054620003009062000486565b90600052602060002090601f01602090048101928262000324576000855562000370565b82601f106200033f57805160ff191683800117855562000370565b8280016001018555821562000370579182015b828111156200036f57825182559160200191906001019062000352565b5b5090506200037f919062000383565b5090565b5b808211156200039e57600081600090555060010162000384565b5090565b600081519050620003b3816200056d565b92915050565b600060208284031215620003d257620003d162000568565b5b6000620003e284828501620003a2565b91505092915050565b6000620003f8826200047c565b915062000405836200047c565b9250827fffffffffffffffffffffffffffffffffffffffffffffffffffffffffffffffff038211156200043d576200043c6200050a565b5b828201905092915050565b600062000455826200045c565b9050919050565b600073ffffffffffffffffffffffffffffffffffffffff82169050919050565b6000819050919050565b600060028204905060018216806200049f57607f821691505b60208210811415620004b657620004b562000539565b5b50919050565b6000620004c9826200047c565b91507fffffffffffffffffffffffffffffffffffffffffffffffffffffffffffffffff821415620004ff57620004fe6200050a565b5b600182019050919050565b7f4e487b7100000000000000000000000000000000000000000000000000000000600052601160045260246000fd5b7f4e487b7100000000000000000000000000000000000000000000000000000000600052602260045260246000fd5b600080fd5b620005788162000448565b81146200058457600080fd5b50565b610d2e80620005976000396000f3fe608060405234801561001057600080fd5b50600436106100b45760003560e01c8063647aa95311610071578063647aa9531461017d5780637da0a877146101af5780638da5cb5b146101cd5780639ccca729146101eb578063ab8ed1ba1461021d578063d48f7e8114610239576100b4565b80630d15fd77146100b9578063183a682a146100d75780632c77600d146100f3578063486ff0cd1461011157806356aeef4c1461012f578063572b6c051461014d575b600080fd5b6100c1610257565b6040516100ce9190610a4a565b60405180910390f35b6100f160048036038101906100ec9190610832565b61025d565b005b6100fb610352565b6040516101089190610a4a565b60405180910390f35b610119610358565b60405161012691906109c8565b60405180910390f35b6101376103e6565b6040516101449190610a4a565b60405180910390f35b61016760048036038101906101629190610832565b6103ec565b6040516101749190610976565b60405180910390f35b6101976004803603810190610192919061085f565b610445565b6040516101a693929190610a65565b60405180910390f35b6101b76104f7565b6040516101c4919061095b565b60405180910390f35b6101d561051b565b6040516101e2919061095b565b60405180910390f35b61020560048036038101906102009190610832565b610541565b60405161021493929190610991565b60405180910390f35b6102376004803603810190610232919061085f565b610585565b005b6102416107c6565b60405161024e9190610a4a565b60405180910390f35b60035481565b600260009054906101000a900473ffffffffffffffffffffffffffffffffffffffff1673ffffffffffffffffffffffffffffffffffffffff1661029e6107cc565b73ffffffffffffffffffffffffffffffffffffffff16146102f4576040517f08c379a00000000000000000000000000000000000000000000000000000000081526004016102eb90610a2a565b60405180910390fd5b6001600460008373ffffffffffffffffffffffffffffffffffffffff1673ffffffffffffffffffffffffffffffffffffffff16815260200190815260200160002060020160006101000a81548160ff02191690831515021790555050565b60085481565b6001805461036590610b3a565b80601f016020809104026020016040519081016040528092919081815260200182805461039190610b3a565b80156103de5780601f106103b3576101008083540402835291602001916103de565b820191906000526020600020905b8154815290600101906020018083116103c157829003601f168201915b505050505081565b60065481565b60008060009054906101000a900473ffffffffffffffffffffffffffffffffffffffff1673ffffffffffffffffffffffffffffffffffffffff168273ffffffffffffffffffffffffffffffffffffffff16149050919050565b600560205280600052604060002060009150905080600001549080600101805461046e90610b3a565b80601f016020809104026020016040519081016040528092919081815260200182805461049a90610b3a565b80156104e75780601f106104bc576101008083540402835291602001916104e7565b820191906000526020600020905b8154815290600101906020018083116104ca57829003601f168201915b5050505050908060020154905083565b60008054906101000a900473ffffffffffffffffffffffffffffffffffffffff1681565b600260009054906101000a900473ffffffffffffffffffffffffffffffffffffffff1681565b60046020528060005260406000206000915090508060000160009054906101000a900460ff16908060010154908060020160009054906101000a900460ff16905083565b60075442101561059457600080fd5b60085442106105a257600080fd5b600460006105ae6107cc565b73ffffffffffffffffffffffffffffffffffffffff1673ffffffffffffffffffffffffffffffffffffffff16815260200190815260200160002060020160009054906101000a900460ff16610638576040517f08c379a000000000000000000000000000000000000000000000000000000000815260040161062f906109ea565b60405180910390fd5b600460006106446107cc565b73ffffffffffffffffffffffffffffffffffffffff1673ffffffffffffffffffffffffffffffffffffffff16815260200190815260200160002060000160009054906101000a900460ff16156106cf576040517f08c379a00000000000000000000000000000000000000000000000000000000081526004016106c690610a0a565b60405180910390fd5b6005600082815260200190815260200160002060020160008154809291906106f690610b6c565b91905055506003600081548092919061070e90610b6c565b919050555080600460006107206107cc565b73ffffffffffffffffffffffffffffffffffffffff1673ffffffffffffffffffffffffffffffffffffffff1681526020019081526020016000206001018190555060016004600061076f6107cc565b73ffffffffffffffffffffffffffffffffffffffff1673ffffffffffffffffffffffffffffffffffffffff16815260200190815260200160002060000160006101000a81548160ff02191690831515021790555050565b60075481565b600060146000369050101580156107e857506107e7336103ec565b5b156107fc57601436033560601c9050610804565b339050610805565b5b90565b60008135905061081781610cca565b92915050565b60008135905061082c81610ce1565b92915050565b60006020828403121561084857610847610c13565b5b600061085684828501610808565b91505092915050565b60006020828403121561087557610874610c13565b5b60006108838482850161081d565b91505092915050565b61089581610abf565b82525050565b6108a481610ad1565b82525050565b60006108b582610aa3565b6108bf8185610aae565b93506108cf818560208601610b07565b6108d881610c18565b840191505092915050565b60006108f0601483610aae565b91506108fb82610c29565b602082019050919050565b6000610913600b83610aae565b915061091e82610c52565b602082019050919050565b6000610936602f83610aae565b915061094182610c7b565b604082019050919050565b61095581610afd565b82525050565b6000602082019050610970600083018461088c565b92915050565b600060208201905061098b600083018461089b565b92915050565b60006060820190506109a6600083018661089b565b6109b3602083018561094c565b6109c0604083018461089b565b949350505050565b600060208201905081810360008301526109e281846108aa565b905092915050565b60006020820190508181036000830152610a03816108e3565b9050919050565b60006020820190508181036000830152610a2381610906565b9050919050565b60006020820190508181036000830152610a4381610929565b9050919050565b6000602082019050610a5f600083018461094c565b92915050565b6000606082019050610a7a600083018661094c565b8181036020830152610a8c81856108aa565b9050610a9b604083018461094c565b949350505050565b600081519050919050565b600082825260208201905092915050565b6000610aca82610add565b9050919050565b60008115159050919050565b600073ffffffffffffffffffffffffffffffffffffffff82169050919050565b6000819050919050565b60005b83811015610b25578082015181840152602081019050610b0a565b83811115610b34576000848401525b50505050565b60006002820490506001821680610b5257607f821691505b60208210811415610b6657610b65610be4565b5b50919050565b6000610b7782610afd565b91507fffffffffffffffffffffffffffffffffffffffffffffffffffffffffffffffff821415610baa57610ba9610bb5565b5b600182019050919050565b7f4e487b7100000000000000000000000000000000000000000000000000000000600052601160045260246000fd5b7f4e487b7100000000000000000000000000000000000000000000000000000000600052602260045260246000fd5b600080fd5b6000601f19601f8301169050919050565b7f706173206c652064726f697420646520766f7465000000000000000000000000600082015250565b7f612064656a6120766f7465000000000000000000000000000000000000000000600082015250565b7f7365756c206c652070726f7072696574616972652070657574206175746f726960008201527f7365722071716e206120766f7465720000000000000000000000000000000000602082015250565b610cd381610abf565b8114610cde57600080fd5b50565b610cea81610afd565b8114610cf557600080fd5b5056fea2646970667358221220a6bccdaac7b1cd37befb2f4abe2596e7b09a2f9397b6f5089c6b69f6e822a49564736f6c63430008060033",
  "immutableReferences": {},
  "source": "// SPDX-License-Identifier: MIT\r\n// pragma solidity ^0.8.0;\r\npragma solidity >=0.7.6;\r\n\r\n// import \"@openzeppelin/contracts/security/Pausable.sol\";\r\nimport \"@opengsn/contracts/src/BaseRelayRecipient.sol\";\r\n\r\ncontract Election is BaseRelayRecipient{\r\n\r\n    string public override versionRecipient = \"2.2.0\";\r\n    address public owner;\r\n\r\n    struct Citoyen {\r\n        bool aVote;\r\n        uint256 vote;\r\n        bool autorise;\r\n    }\r\n\r\n    struct Candidat {\r\n        uint256 num;\r\n        string nom;\r\n        uint256 nbrVotes;\r\n    }\r\n\r\n    uint256 public totalVotes;\r\n\r\n    mapping(address => Citoyen) public citoyens;\r\n    mapping(uint256 => Candidat) public candidats;\r\n    uint256 public nbrCandidats;\r\n\r\n    uint256 public dateDebut;\r\n    uint256 public dateFin;\r\n\r\n    constructor(address forwarder_) {\r\n        trustedForwarder = forwarder_;\r\n        owner = _msgSender();\r\n        dateDebut = 1624289019; //21/06/2021 a 17h23 (test)\r\n        dateFin = block.timestamp + 100000000; //test\r\n        ajoutCandidat(\"Emmanuel Macron\");\r\n        ajoutCandidat(\"Marine Le Pen\");\r\n    }\r\n\r\n    function donnerDroitDeVote(address _personne) external {\r\n        require(\r\n            _msgSender() == owner,\r\n            \"seul le proprietaire peut autoriser qqn a voter\"\r\n        );\r\n        citoyens[_personne].autorise = true;\r\n    }\r\n\r\n    function voter(uint256 _bulletinNum) external {\r\n        require(block.timestamp >= dateDebut);\r\n        require(block.timestamp < dateFin);\r\n        require(\r\n            citoyens[_msgSender()].autorise,\r\n            \"pas le droit de vote\"\r\n        );\r\n        require(\r\n            !citoyens[_msgSender()].aVote,\r\n            \"a deja vote\"\r\n        );\r\n\r\n        candidats[_bulletinNum].nbrVotes++;\r\n        totalVotes++;\r\n\r\n        citoyens[_msgSender()].vote = _bulletinNum;\r\n        citoyens[_msgSender()].aVote = true;\r\n    }\r\n\r\n    function ajoutCandidat(string memory _nom) internal {\r\n        nbrCandidats++;\r\n        candidats[nbrCandidats] = Candidat(nbrCandidats, _nom, 0);\r\n    }\r\n\r\n    // function end() external whenNotPaused {\r\n    //     require(\r\n    //         _msgSender() == owner,\r\n    //         \"seul le proprietaire peut terminer l election\"\r\n    //     );\r\n    //     require(\r\n    //         block.timestamp > dateFin,\r\n    //         \"peut pas arreter vote tant que periode electorale pas finie\"\r\n    //     );\r\n    //     _pause();\r\n    // }\r\n\r\n    // function _msgSender() internal view override(Context, BaseRelayRecipient)\r\n    //     returns (address payable sender) {\r\n    //     sender = BaseRelayRecipient._msgSender();\r\n    // }\r\n\r\n    // function _msgData() internal view override(Context, BaseRelayRecipient)\r\n    //     returns (bytes memory) {\r\n    //     return BaseRelayRecipient._msgData();\r\n    // }\r\n}\r\n",
  "sourcePath": "C:/Users/Jo le Rigolo/Documents/EFREI/projets/projet-mastercamp/frontend/contracts/Election.sol",
  "compiler": {
    "name": "solc",
    "version": "0.8.6+commit.11564f7e.Emscripten.clang"
  },
  "schemaVersion": "3.4.1",
  "updatedAt": "2021-07-02T14:18:36.535Z",
  "networkType": "ethereum",
  "devdoc": {
    "kind": "dev",
    "methods": {},
    "version": 1
  },
  "userdoc": {
    "kind": "user",
    "methods": {
      "isTrustedForwarder(address)": {
        "notice": "return if the forwarder is trusted to forward relayed transactions to us. the forwarder is required to verify the sender's signature, and verify the call is not a replay."
      }
    },
    "version": 1
  }
}