{
  "contractName": "Forwarder",
  "abi": [
    {
      "inputs": [],
      "stateMutability": "nonpayable",
      "type": "constructor"
    },
    {
      "anonymous": false,
      "inputs": [
        {
          "indexed": true,
          "internalType": "bytes32",
          "name": "domainSeparator",
          "type": "bytes32"
        },
        {
          "indexed": false,
          "internalType": "bytes",
          "name": "domainValue",
          "type": "bytes"
        }
      ],
      "name": "DomainRegistered",
      "type": "event"
    },
    {
      "anonymous": false,
      "inputs": [
        {
          "indexed": true,
          "internalType": "bytes32",
          "name": "typeHash",
          "type": "bytes32"
        },
        {
          "indexed": false,
          "internalType": "string",
          "name": "typeStr",
          "type": "string"
        }
      ],
      "name": "RequestTypeRegistered",
      "type": "event"
    },
    {
      "inputs": [],
      "name": "EIP712_DOMAIN_TYPE",
      "outputs": [
        {
          "internalType": "string",
          "name": "",
          "type": "string"
        }
      ],
      "stateMutability": "view",
      "type": "function",
      "constant": true
    },
    {
      "inputs": [],
      "name": "GENERIC_PARAMS",
      "outputs": [
        {
          "internalType": "string",
          "name": "",
          "type": "string"
        }
      ],
      "stateMutability": "view",
      "type": "function",
      "constant": true
    },
    {
      "inputs": [
        {
          "internalType": "bytes32",
          "name": "",
          "type": "bytes32"
        }
      ],
      "name": "domains",
      "outputs": [
        {
          "internalType": "bool",
          "name": "",
          "type": "bool"
        }
      ],
      "stateMutability": "view",
      "type": "function",
      "constant": true
    },
    {
      "inputs": [
        {
          "internalType": "bytes32",
          "name": "",
          "type": "bytes32"
        }
      ],
      "name": "typeHashes",
      "outputs": [
        {
          "internalType": "bool",
          "name": "",
          "type": "bool"
        }
      ],
      "stateMutability": "view",
      "type": "function",
      "constant": true
    },
    {
      "stateMutability": "payable",
      "type": "receive",
      "payable": true
    },
    {
      "inputs": [
        {
          "internalType": "address",
          "name": "from",
          "type": "address"
        }
      ],
      "name": "getNonce",
      "outputs": [
        {
          "internalType": "uint256",
          "name": "",
          "type": "uint256"
        }
      ],
      "stateMutability": "view",
      "type": "function",
      "constant": true
    },
    {
      "inputs": [
        {
          "components": [
            {
              "internalType": "address",
              "name": "from",
              "type": "address"
            },
            {
              "internalType": "address",
              "name": "to",
              "type": "address"
            },
            {
              "internalType": "uint256",
              "name": "value",
              "type": "uint256"
            },
            {
              "internalType": "uint256",
              "name": "gas",
              "type": "uint256"
            },
            {
              "internalType": "uint256",
              "name": "nonce",
              "type": "uint256"
            },
            {
              "internalType": "bytes",
              "name": "data",
              "type": "bytes"
            },
            {
              "internalType": "uint256",
              "name": "validUntil",
              "type": "uint256"
            }
          ],
          "internalType": "struct IForwarder.ForwardRequest",
          "name": "req",
          "type": "tuple"
        },
        {
          "internalType": "bytes32",
          "name": "domainSeparator",
          "type": "bytes32"
        },
        {
          "internalType": "bytes32",
          "name": "requestTypeHash",
          "type": "bytes32"
        },
        {
          "internalType": "bytes",
          "name": "suffixData",
          "type": "bytes"
        },
        {
          "internalType": "bytes",
          "name": "sig",
          "type": "bytes"
        }
      ],
      "name": "verify",
      "outputs": [],
      "stateMutability": "view",
      "type": "function",
      "constant": true
    },
    {
      "inputs": [
        {
          "components": [
            {
              "internalType": "address",
              "name": "from",
              "type": "address"
            },
            {
              "internalType": "address",
              "name": "to",
              "type": "address"
            },
            {
              "internalType": "uint256",
              "name": "value",
              "type": "uint256"
            },
            {
              "internalType": "uint256",
              "name": "gas",
              "type": "uint256"
            },
            {
              "internalType": "uint256",
              "name": "nonce",
              "type": "uint256"
            },
            {
              "internalType": "bytes",
              "name": "data",
              "type": "bytes"
            },
            {
              "internalType": "uint256",
              "name": "validUntil",
              "type": "uint256"
            }
          ],
          "internalType": "struct IForwarder.ForwardRequest",
          "name": "req",
          "type": "tuple"
        },
        {
          "internalType": "bytes32",
          "name": "domainSeparator",
          "type": "bytes32"
        },
        {
          "internalType": "bytes32",
          "name": "requestTypeHash",
          "type": "bytes32"
        },
        {
          "internalType": "bytes",
          "name": "suffixData",
          "type": "bytes"
        },
        {
          "internalType": "bytes",
          "name": "sig",
          "type": "bytes"
        }
      ],
      "name": "execute",
      "outputs": [
        {
          "internalType": "bool",
          "name": "success",
          "type": "bool"
        },
        {
          "internalType": "bytes",
          "name": "ret",
          "type": "bytes"
        }
      ],
      "stateMutability": "payable",
      "type": "function",
      "payable": true
    },
    {
      "inputs": [
        {
          "internalType": "string",
          "name": "typeName",
          "type": "string"
        },
        {
          "internalType": "string",
          "name": "typeSuffix",
          "type": "string"
        }
      ],
      "name": "registerRequestType",
      "outputs": [],
      "stateMutability": "nonpayable",
      "type": "function"
    },
    {
      "inputs": [
        {
          "internalType": "string",
          "name": "name",
          "type": "string"
        },
        {
          "internalType": "string",
          "name": "version",
          "type": "string"
        }
      ],
      "name": "registerDomainSeparator",
      "outputs": [],
      "stateMutability": "nonpayable",
      "type": "function"
    },
    {
      "inputs": [
        {
          "components": [
            {
              "internalType": "address",
              "name": "from",
              "type": "address"
            },
            {
              "internalType": "address",
              "name": "to",
              "type": "address"
            },
            {
              "internalType": "uint256",
              "name": "value",
              "type": "uint256"
            },
            {
              "internalType": "uint256",
              "name": "gas",
              "type": "uint256"
            },
            {
              "internalType": "uint256",
              "name": "nonce",
              "type": "uint256"
            },
            {
              "internalType": "bytes",
              "name": "data",
              "type": "bytes"
            },
            {
              "internalType": "uint256",
              "name": "validUntil",
              "type": "uint256"
            }
          ],
          "internalType": "struct IForwarder.ForwardRequest",
          "name": "req",
          "type": "tuple"
        },
        {
          "internalType": "bytes32",
          "name": "requestTypeHash",
          "type": "bytes32"
        },
        {
          "internalType": "bytes",
          "name": "suffixData",
          "type": "bytes"
        }
      ],
      "name": "_getEncoded",
      "outputs": [
        {
          "internalType": "bytes",
          "name": "",
          "type": "bytes"
        }
      ],
      "stateMutability": "pure",
      "type": "function",
      "constant": true
    }
  ],
  "bytecode": "0x60806040523480156200001157600080fd5b5060006040518060800160405280605d8152602001620023b3605d9139604051602001620000409190620001a4565b604051602081830303815290604052905062000062816200006960201b60201c565b50620002bb565b600081805190602001209050600160008083815260200190815260200160002060006101000a81548160ff021916908315150217905550807f64d6bce64323458c44643c51fe45113efc882082f7b7fd5f09f0d69d2eedb20283604051620000d29190620001d7565b60405180910390a25050565b6000620000eb82620001fb565b620000f7818562000206565b93506200010981856020860162000222565b620001148162000258565b840191505092915050565b60006200012c82620001fb565b62000138818562000217565b93506200014a81856020860162000222565b80840191505092915050565b600062000165600f8362000217565b9150620001728262000269565b600f82019050919050565b60006200018c60018362000217565b9150620001998262000292565b600182019050919050565b6000620001b18262000156565b9150620001bf82846200011f565b9150620001cc826200017d565b915081905092915050565b60006020820190508181036000830152620001f38184620000de565b905092915050565b600081519050919050565b600082825260208201905092915050565b600081905092915050565b60005b838110156200024257808201518184015260208101905062000225565b8381111562000252576000848401525b50505050565b6000601f19601f8301169050919050565b7f466f727761726452657175657374280000000000000000000000000000000000600082015250565b7f2900000000000000000000000000000000000000000000000000000000000000600082015250565b6120e880620002cb6000396000f3fe6080604052600436106100955760003560e01c8063c3f28abd11610059578063c3f28abd14610198578063c722f177146101c3578063d9210be514610200578063e024dc7f14610229578063e2b62f2d1461025a5761009c565b8063066a310c146100a157806321fe98df146100cc5780632d0335ab146101095780639c7b459214610146578063ad9f99c71461016f5761009c565b3661009c57005b600080fd5b3480156100ad57600080fd5b506100b6610297565b6040516100c39190611822565b60405180910390f35b3480156100d857600080fd5b506100f360048036038101906100ee9190610ff2565b6102b3565b604051610100919061171d565b60405180910390f35b34801561011557600080fd5b50610130600480360381019061012b9190610fc5565b6102d3565b60405161013d91906119a4565b60405180910390f35b34801561015257600080fd5b5061016d6004803603810190610168919061101f565b61031c565b005b34801561017b57600080fd5b50610196600480360381019061019191906110a0565b610412565b005b3480156101a457600080fd5b506101ad610433565b6040516101ba9190611822565b60405180910390f35b3480156101cf57600080fd5b506101ea60048036038101906101e59190610ff2565b61044f565b6040516101f7919061171d565b60405180910390f35b34801561020c57600080fd5b506102276004803603810190610222919061101f565b61046f565b005b610243600480360381019061023e91906110a0565b6105da565b604051610251929190611738565b60405180910390f35b34801561026657600080fd5b50610281600480360381019061027c9190611178565b61081f565b60405161028e9190611800565b60405180910390f35b6040518060800160405280605d8152602001612004605d913981565b60006020528060005260406000206000915054906101000a900460ff1681565b6000600260008373ffffffffffffffffffffffffffffffffffffffff1673ffffffffffffffffffffffffffffffffffffffff168152602001908152602001600020549050919050565b6000469050600060405180608001604052806052815260200161206160529139805190602001208686604051610353929190611641565b6040518091039020858560405161036b929190611641565b60405180910390208430604051602001610389959493929190611768565b6040516020818303038152906040529050600081805190602001209050600180600083815260200190815260200160002060006101000a81548160ff021916908315150217905550807f4bc68689cbe89a4a6333a3ab0a70093874da3e5bfb71e93102027f3f073687d8836040516104019190611800565b60405180910390a250505050505050565b61041b876108e2565b61042a8787878787878761097c565b50505050505050565b6040518060800160405280605281526020016120616052913981565b60016020528060005260406000206000915054906101000a900460ff1681565b60005b8484905081101561058557600085858381811061049257610491611cd1565b5b9050013560f81c60f81b90507f2800000000000000000000000000000000000000000000000000000000000000817effffffffffffffffffffffffffffffffffffffffffffffffffffffffffffff19161415801561053257507f2900000000000000000000000000000000000000000000000000000000000000817effffffffffffffffffffffffffffffffffffffffffffffffffffffffffffff191614155b610571576040517f08c379a000000000000000000000000000000000000000000000000000000000815260040161056890611964565b60405180910390fd5b50808061057d90611bf2565b915050610472565b50600084846040518060800160405280605d8152602001612004605d913985856040516020016105b995949392919061169b565b60405160208183030381529060405290506105d381610b5a565b5050505050565b600060606105ed8989898989898961097c565b6105f689610bcd565b60008960c00135148061060c5750438960c00135115b61064b576040517f08c379a000000000000000000000000000000000000000000000000000000000815260040161064290611924565b60405180910390fd5b6000808a604001351461065e57619c4090505b60008a8060a0019061067091906119bf565b8c60000160208101906106839190610fc5565b6040516020016106959392919061165a565b6040516020818303038152906040529050818b606001356106b69190611a70565b6040603f5a6106c59190611af7565b6106cf9190611ac6565b1015610710576040517f08c379a000000000000000000000000000000000000000000000000000000000815260040161070790611904565b60405180910390fd5b8a60200160208101906107239190610fc5565b73ffffffffffffffffffffffffffffffffffffffff168b606001358c60400135836040516107519190611684565b600060405180830381858888f193505050503d806000811461078f576040519150601f19603f3d011682016040523d82523d6000602084013e610794565b606091505b50809450819550505060008b60400135141580156107b25750600047115b15610811578a60000160208101906107ca9190610fc5565b73ffffffffffffffffffffffffffffffffffffffff166108fc479081150290604051600060405180830381858888f1935050505015801561080f573d6000803e3d6000fd5b505b505097509795505050505050565b6060838560000160208101906108359190610fc5565b73ffffffffffffffffffffffffffffffffffffffff1686602001602081019061085e9190610fc5565b73ffffffffffffffffffffffffffffffffffffffff168760400135886060013589608001358a8060a0019061089391906119bf565b6040516108a1929190611641565b60405180910390208b60c001358a8a6040516020016108c99a999897969594939291906115a0565b6040516020818303038152906040529050949350505050565b8060800135600260008360000160208101906108fe9190610fc5565b73ffffffffffffffffffffffffffffffffffffffff1673ffffffffffffffffffffffffffffffffffffffff1681526020019081526020016000205414610979576040517f08c379a0000000000000000000000000000000000000000000000000000000008152600401610970906118e4565b60405180910390fd5b50565b6001600087815260200190815260200160002060009054906101000a900460ff166109dc576040517f08c379a00000000000000000000000000000000000000000000000000000000081526004016109d390611944565b60405180910390fd5b60008086815260200190815260200160002060009054906101000a900460ff16610a3b576040517f08c379a0000000000000000000000000000000000000000000000000000000008152600401610a3290611984565b60405180910390fd5b600086610a4a8988888861081f565b80519060200120604051602001610a629291906116e6565b604051602081830303815290604052805190602001209050876000016020810190610a8d9190610fc5565b73ffffffffffffffffffffffffffffffffffffffff16610afa84848080601f016020809104026020016040519081016040528093929190818152602001838380828437600081840152601f19601f8201169050808301925050505050505083610c7b90919063ffffffff16565b73ffffffffffffffffffffffffffffffffffffffff1614610b50576040517f08c379a0000000000000000000000000000000000000000000000000000000008152600401610b47906118c4565b60405180910390fd5b5050505050505050565b600081805190602001209050600160008083815260200190815260200160002060006101000a81548160ff021916908315150217905550807f64d6bce64323458c44643c51fe45113efc882082f7b7fd5f09f0d69d2eedb20283604051610bc19190611822565b60405180910390a25050565b806080013560026000836000016020810190610be99190610fc5565b73ffffffffffffffffffffffffffffffffffffffff1673ffffffffffffffffffffffffffffffffffffffff1681526020019081526020016000206000815480929190610c3490611bf2565b9190505514610c78576040517f08c379a0000000000000000000000000000000000000000000000000000000008152600401610c6f906118e4565b60405180910390fd5b50565b600080600080604185511415610ca8576020850151925060408501519150606085015160001a9050610d2e565b604085511415610cf2576040850151602086015193507f7fffffffffffffffffffffffffffffffffffffffffffffffffffffffffffffff81169250601b8160ff1c01915050610d2d565b6040517f08c379a0000000000000000000000000000000000000000000000000000000008152600401610d2490611864565b60405180910390fd5b5b610d3a86828585610d45565b935050505092915050565b60007f7fffffffffffffffffffffffffffffff5d576e7357a4501ddfe92f46681b20a08260001c1115610dad576040517f08c379a0000000000000000000000000000000000000000000000000000000008152600401610da490611884565b60405180910390fd5b601b8460ff161480610dc25750601c8460ff16145b610e01576040517f08c379a0000000000000000000000000000000000000000000000000000000008152600401610df8906118a4565b60405180910390fd5b600060018686868660405160008152602001604052604051610e2694939291906117bb565b6020604051602081039080840390855afa158015610e48573d6000803e3d6000fd5b505050602060405103519050600073ffffffffffffffffffffffffffffffffffffffff168173ffffffffffffffffffffffffffffffffffffffff161415610ec4576040517f08c379a0000000000000000000000000000000000000000000000000000000008152600401610ebb90611844565b60405180910390fd5b80915050949350505050565b600081359050610edf81611fd5565b92915050565b600081359050610ef481611fec565b92915050565b60008083601f840112610f1057610f0f611d05565b5b8235905067ffffffffffffffff811115610f2d57610f2c611d00565b5b602083019150836001820283011115610f4957610f48611d19565b5b9250929050565b60008083601f840112610f6657610f65611d05565b5b8235905067ffffffffffffffff811115610f8357610f82611d00565b5b602083019150836001820283011115610f9f57610f9e611d19565b5b9250929050565b600060e08284031215610fbc57610fbb611d0f565b5b81905092915050565b600060208284031215610fdb57610fda611d28565b5b6000610fe984828501610ed0565b91505092915050565b60006020828403121561100857611007611d28565b5b600061101684828501610ee5565b91505092915050565b6000806000806040858703121561103957611038611d28565b5b600085013567ffffffffffffffff81111561105757611056611d23565b5b61106387828801610f50565b9450945050602085013567ffffffffffffffff81111561108657611085611d23565b5b61109287828801610f50565b925092505092959194509250565b600080600080600080600060a0888a0312156110bf576110be611d28565b5b600088013567ffffffffffffffff8111156110dd576110dc611d23565b5b6110e98a828b01610fa6565b97505060206110fa8a828b01610ee5565b965050604061110b8a828b01610ee5565b955050606088013567ffffffffffffffff81111561112c5761112b611d23565b5b6111388a828b01610efa565b9450945050608088013567ffffffffffffffff81111561115b5761115a611d23565b5b6111678a828b01610efa565b925092505092959891949750929550565b6000806000806060858703121561119257611191611d28565b5b600085013567ffffffffffffffff8111156111b0576111af611d23565b5b6111bc87828801610fa6565b94505060206111cd87828801610ee5565b935050604085013567ffffffffffffffff8111156111ee576111ed611d23565b5b6111fa87828801610efa565b925092505092959194509250565b61121181611b51565b82525050565b61122861122382611b51565b611c3b565b82525050565b61123781611b63565b82525050565b61124681611b6f565b82525050565b61125d61125882611b6f565b611c4d565b82525050565b600061126f8385611a49565b935061127c838584611bb0565b82840190509392505050565b600061129382611a22565b61129d8185611a38565b93506112ad818560208601611bbf565b6112b681611d2d565b840191505092915050565b60006112cc82611a22565b6112d68185611a49565b93506112e6818560208601611bbf565b80840191505092915050565b60006112fe8385611a65565b935061130b838584611bb0565b82840190509392505050565b600061132282611a2d565b61132c8185611a54565b935061133c818560208601611bbf565b61134581611d2d565b840191505092915050565b600061135b82611a2d565b6113658185611a65565b9350611375818560208601611bbf565b80840191505092915050565b600061138e601883611a54565b915061139982611d4b565b602082019050919050565b60006113b1601f83611a54565b91506113bc82611d74565b602082019050919050565b60006113d4600283611a65565b91506113df82611d9d565b600282019050919050565b60006113f7600183611a65565b915061140282611dc6565b600182019050919050565b600061141a600183611a65565b915061142582611def565b600182019050919050565b600061143d602283611a54565b915061144882611e18565b604082019050919050565b6000611460602283611a54565b915061146b82611e67565b604082019050919050565b6000611483601783611a54565b915061148e82611eb6565b602082019050919050565b60006114a6601383611a54565b91506114b182611edf565b602082019050919050565b60006114c9601583611a54565b91506114d482611f08565b602082019050919050565b60006114ec601483611a54565b91506114f782611f31565b602082019050919050565b600061150f601d83611a54565b915061151a82611f5a565b602082019050919050565b6000611532601583611a54565b915061153d82611f83565b602082019050919050565b6000611555601a83611a54565b915061156082611fac565b602082019050919050565b61157481611b99565b82525050565b61158b61158682611b99565b611c69565b82525050565b61159a81611ba3565b82525050565b60006115ac828d61124c565b6020820191506115bc828c61157a565b6020820191506115cc828b61157a565b6020820191506115dc828a61157a565b6020820191506115ec828961157a565b6020820191506115fc828861157a565b60208201915061160c828761124c565b60208201915061161c828661157a565b60208201915061162d828486611263565b91508190509b9a5050505050505050505050565b600061164e828486611263565b91508190509392505050565b6000611667828587611263565b91506116738284611217565b601482019150819050949350505050565b600061169082846112c1565b915081905092915050565b60006116a88287896112f2565b91506116b38261140d565b91506116bf8286611350565b91506116ca826113ea565b91506116d78284866112f2565b91508190509695505050505050565b60006116f1826113c7565b91506116fd828561124c565b60208201915061170d828461124c565b6020820191508190509392505050565b6000602082019050611732600083018461122e565b92915050565b600060408201905061174d600083018561122e565b818103602083015261175f8184611288565b90509392505050565b600060a08201905061177d600083018861123d565b61178a602083018761123d565b611797604083018661123d565b6117a4606083018561156b565b6117b16080830184611208565b9695505050505050565b60006080820190506117d0600083018761123d565b6117dd6020830186611591565b6117ea604083018561123d565b6117f7606083018461123d565b95945050505050565b6000602082019050818103600083015261181a8184611288565b905092915050565b6000602082019050818103600083015261183c8184611317565b905092915050565b6000602082019050818103600083015261185d81611381565b9050919050565b6000602082019050818103600083015261187d816113a4565b9050919050565b6000602082019050818103600083015261189d81611430565b9050919050565b600060208201905081810360008301526118bd81611453565b9050919050565b600060208201905081810360008301526118dd81611476565b9050919050565b600060208201905081810360008301526118fd81611499565b9050919050565b6000602082019050818103600083015261191d816114bc565b9050919050565b6000602082019050818103600083015261193d816114df565b9050919050565b6000602082019050818103600083015261195d81611502565b9050919050565b6000602082019050818103600083015261197d81611525565b9050919050565b6000602082019050818103600083015261199d81611548565b9050919050565b60006020820190506119b9600083018461156b565b92915050565b600080833560016020038436030381126119dc576119db611d14565b5b80840192508235915067ffffffffffffffff8211156119fe576119fd611d0a565b5b602083019250600182023603831315611a1a57611a19611d1e565b5b509250929050565b600081519050919050565b600081519050919050565b600082825260208201905092915050565b600081905092915050565b600082825260208201905092915050565b600081905092915050565b6000611a7b82611b99565b9150611a8683611b99565b9250827fffffffffffffffffffffffffffffffffffffffffffffffffffffffffffffffff03821115611abb57611aba611c73565b5b828201905092915050565b6000611ad182611b99565b9150611adc83611b99565b925082611aec57611aeb611ca2565b5b828204905092915050565b6000611b0282611b99565b9150611b0d83611b99565b9250817fffffffffffffffffffffffffffffffffffffffffffffffffffffffffffffffff0483118215151615611b4657611b45611c73565b5b828202905092915050565b6000611b5c82611b79565b9050919050565b60008115159050919050565b6000819050919050565b600073ffffffffffffffffffffffffffffffffffffffff82169050919050565b6000819050919050565b600060ff82169050919050565b82818337600083830152505050565b60005b83811015611bdd578082015181840152602081019050611bc2565b83811115611bec576000848401525b50505050565b6000611bfd82611b99565b91507fffffffffffffffffffffffffffffffffffffffffffffffffffffffffffffffff821415611c3057611c2f611c73565b5b600182019050919050565b6000611c4682611c57565b9050919050565b6000819050919050565b6000611c6282611d3e565b9050919050565b6000819050919050565b7f4e487b7100000000000000000000000000000000000000000000000000000000600052601160045260246000fd5b7f4e487b7100000000000000000000000000000000000000000000000000000000600052601260045260246000fd5b7f4e487b7100000000000000000000000000000000000000000000000000000000600052603260045260246000fd5b600080fd5b600080fd5b600080fd5b600080fd5b600080fd5b600080fd5b600080fd5b600080fd5b600080fd5b6000601f19601f8301169050919050565b60008160601b9050919050565b7f45434453413a20696e76616c6964207369676e61747572650000000000000000600082015250565b7f45434453413a20696e76616c6964207369676e6174757265206c656e67746800600082015250565b7f1901000000000000000000000000000000000000000000000000000000000000600082015250565b7f2c00000000000000000000000000000000000000000000000000000000000000600082015250565b7f2800000000000000000000000000000000000000000000000000000000000000600082015250565b7f45434453413a20696e76616c6964207369676e6174757265202773272076616c60008201527f7565000000000000000000000000000000000000000000000000000000000000602082015250565b7f45434453413a20696e76616c6964207369676e6174757265202776272076616c60008201527f7565000000000000000000000000000000000000000000000000000000000000602082015250565b7f4657443a207369676e6174757265206d69736d61746368000000000000000000600082015250565b7f4657443a206e6f6e6365206d69736d6174636800000000000000000000000000600082015250565b7f4657443a20696e73756666696369656e74206761730000000000000000000000600082015250565b7f4657443a20726571756573742065787069726564000000000000000000000000600082015250565b7f4657443a20756e7265676973746572656420646f6d61696e207365702e000000600082015250565b7f4657443a20696e76616c696420747970656e616d650000000000000000000000600082015250565b7f4657443a20756e72656769737465726564207479706568617368000000000000600082015250565b611fde81611b51565b8114611fe957600080fd5b50565b611ff581611b6f565b811461200057600080fd5b5056fe616464726573732066726f6d2c6164647265737320746f2c75696e743235362076616c75652c75696e74323536206761732c75696e74323536206e6f6e63652c627974657320646174612c75696e743235362076616c6964556e74696c454950373132446f6d61696e28737472696e67206e616d652c737472696e672076657273696f6e2c75696e7432353620636861696e49642c6164647265737320766572696679696e67436f6e747261637429a26469706673582212209f5d4edab5930349d4307d4103d722b679bd05271d5bdf90dfa52c49f9742def64736f6c63430008060033616464726573732066726f6d2c6164647265737320746f2c75696e743235362076616c75652c75696e74323536206761732c75696e74323536206e6f6e63652c627974657320646174612c75696e743235362076616c6964556e74696c",
  "immutableReferences": {},
  "source": "// SPDX-License-Identifier: GPL-3.0-only\npragma solidity >=0.7.6;\npragma abicoder v2;\n\nimport \"@openzeppelin/contracts/utils/cryptography/ECDSA.sol\";\nimport \"../node_modules/@opengsn/contracts/src/forwarder/IForwarder.sol\";\n\ncontract Forwarder is IForwarder {\n    using ECDSA for bytes32;\n\n    string public constant GENERIC_PARAMS = \"address from,address to,uint256 value,uint256 gas,uint256 nonce,bytes data,uint256 validUntil\";\n\n    string public constant EIP712_DOMAIN_TYPE = \"EIP712Domain(string name,string version,uint256 chainId,address verifyingContract)\";\n\n    mapping(bytes32 => bool) public typeHashes;\n    mapping(bytes32 => bool) public domains;\n\n    // Nonces of senders, used to prevent replay attacks\n    mapping(address => uint256) private nonces;\n\n    // solhint-disable-next-line no-empty-blocks\n    receive() external payable {}\n\n    function getNonce(address from)\n    public view override\n    returns (uint256) {\n        return nonces[from];\n    }\n\n    constructor() {\n\n        string memory requestType = string(abi.encodePacked(\"ForwardRequest(\", GENERIC_PARAMS, \")\"));\n        registerRequestTypeInternal(requestType);\n    }\n\n    function verify(\n        ForwardRequest calldata req,\n        bytes32 domainSeparator,\n        bytes32 requestTypeHash,\n        bytes calldata suffixData,\n        bytes calldata sig)\n    external override view {\n\n        _verifyNonce(req);\n        _verifySig(req, domainSeparator, requestTypeHash, suffixData, sig);\n    }\n\n    function execute(\n        ForwardRequest calldata req,\n        bytes32 domainSeparator,\n        bytes32 requestTypeHash,\n        bytes calldata suffixData,\n        bytes calldata sig\n    )\n    external payable\n    override\n    returns (bool success, bytes memory ret) {\n        _verifySig(req, domainSeparator, requestTypeHash, suffixData, sig);\n        _verifyAndUpdateNonce(req);\n\n        require(req.validUntil == 0 || req.validUntil > block.number, \"FWD: request expired\");\n\n        uint gasForTransfer = 0;\n        if ( req.value != 0 ) {\n            gasForTransfer = 40000; //buffer in case we need to move eth after the transaction.\n        }\n        bytes memory callData = abi.encodePacked(req.data, req.from);\n        require(gasleft()*63/64 >= req.gas + gasForTransfer, \"FWD: insufficient gas\");\n        // solhint-disable-next-line avoid-low-level-calls\n        (success,ret) = req.to.call{gas : req.gas, value : req.value}(callData);\n        if ( req.value != 0 && address(this).balance>0 ) {\n            // can't fail: req.from signed (off-chain) the request, so it must be an EOA...\n            payable(req.from).transfer(address(this).balance);\n        }\n\n        return (success,ret);\n    }\n\n\n    function _verifyNonce(ForwardRequest calldata req) internal view {\n        require(nonces[req.from] == req.nonce, \"FWD: nonce mismatch\");\n    }\n\n    function _verifyAndUpdateNonce(ForwardRequest calldata req) internal {\n        require(nonces[req.from]++ == req.nonce, \"FWD: nonce mismatch\");\n    }\n\n    function registerRequestType(string calldata typeName, string calldata typeSuffix) external override {\n\n        for (uint i = 0; i < bytes(typeName).length; i++) {\n            bytes1 c = bytes(typeName)[i];\n            require(c != \"(\" && c != \")\", \"FWD: invalid typename\");\n        }\n\n        string memory requestType = string(abi.encodePacked(typeName, \"(\", GENERIC_PARAMS, \",\", typeSuffix));\n        registerRequestTypeInternal(requestType);\n    }\n\n    function registerDomainSeparator(string calldata name, string calldata version) external override {\n        uint256 chainId;\n        /* solhint-disable-next-line no-inline-assembly */\n        assembly { chainId := chainid() }\n\n        bytes memory domainValue = abi.encode(\n            keccak256(bytes(EIP712_DOMAIN_TYPE)),\n            keccak256(bytes(name)),\n            keccak256(bytes(version)),\n            chainId,\n            address(this));\n\n        bytes32 domainHash = keccak256(domainValue);\n\n        domains[domainHash] = true;\n        emit DomainRegistered(domainHash, domainValue);\n    }\n\n    function registerRequestTypeInternal(string memory requestType) internal {\n\n        bytes32 requestTypehash = keccak256(bytes(requestType));\n        typeHashes[requestTypehash] = true;\n        emit RequestTypeRegistered(requestTypehash, requestType);\n    }\n\n    function _verifySig(\n        ForwardRequest calldata req,\n        bytes32 domainSeparator,\n        bytes32 requestTypeHash,\n        bytes calldata suffixData,\n        bytes calldata sig)\n    internal\n    view\n    {\n        require(domains[domainSeparator], \"FWD: unregistered domain sep.\");\n        require(typeHashes[requestTypeHash], \"FWD: unregistered typehash\");\n        bytes32 digest = keccak256(abi.encodePacked(\n                \"\\x19\\x01\", domainSeparator,\n                keccak256(_getEncoded(req, requestTypeHash, suffixData))\n            ));\n        require(digest.recover(sig) == req.from, \"FWD: signature mismatch\");\n    }\n\n    function _getEncoded(\n        ForwardRequest calldata req,\n        bytes32 requestTypeHash,\n        bytes calldata suffixData\n    )\n    public\n    pure\n    returns (\n        bytes memory\n    ) {\n        // we use encodePacked since we append suffixData as-is, not as dynamic param.\n        // still, we must make sure all first params are encoded as abi.encode()\n        // would encode them - as 256-bit-wide params.\n        return abi.encodePacked(\n            requestTypeHash,\n            uint256(uint160(req.from)),\n            uint256(uint160(req.to)),\n            req.value,\n            req.gas,\n            req.nonce,\n            keccak256(req.data),\n            req.validUntil,\n            suffixData\n        );\n    }\n}\n",
  "sourcePath": "C:/Users/Jo le Rigolo/Documents/EFREI/projets/projet-mastercamp/frontend/contracts/Forwarder.sol",
  "compiler": {
    "name": "solc",
    "version": "0.8.6+commit.11564f7e.Emscripten.clang"
  },
  "schemaVersion": "3.4.1",
  "updatedAt": "2021-07-01T12:37:00.550Z",
  "networkType": "ethereum",
  "devdoc": {
    "kind": "dev",
    "methods": {
      "registerDomainSeparator(string,string)": {
        "params": {
          "name": "the domain's display name",
          "version": "the domain/protocol version"
        }
      },
      "registerRequestType(string,string)": {
        "params": {
          "typeName": "- the name of the request type.",
          "typeSuffix": "- any extra data after the generic params.  (must add at least one param. The generic ForwardRequest type is always registered by the constructor)"
        }
      }
    },
    "version": 1
  },
  "userdoc": {
    "kind": "user",
    "methods": {
      "registerDomainSeparator(string,string)": {
        "notice": "Register a new domain separator. The domain separator must have the following fields: name,version,chainId, verifyingContract. the chainId is the current network's chainId, and the verifyingContract is this forwarder. This method is given the domain name and version to create and register the domain separator value."
      },
      "registerRequestType(string,string)": {
        "notice": "Register a new Request typehash."
      }
    },
    "version": 1
  }
}