{
  "contractName": "Paymaster",
  "abi": [
    {
      "anonymous": false,
      "inputs": [
        {
          "indexed": true,
          "internalType": "address",
          "name": "previousOwner",
          "type": "address"
        },
        {
          "indexed": true,
          "internalType": "address",
          "name": "newOwner",
          "type": "address"
        }
      ],
      "name": "OwnershipTransferred",
      "type": "event"
    },
    {
      "anonymous": false,
      "inputs": [
        {
          "indexed": false,
          "internalType": "uint256",
          "name": "",
          "type": "uint256"
        }
      ],
      "name": "PostRelayed",
      "type": "event"
    },
    {
      "anonymous": false,
      "inputs": [
        {
          "indexed": false,
          "internalType": "uint256",
          "name": "",
          "type": "uint256"
        }
      ],
      "name": "PreRelayed",
      "type": "event"
    },
    {
      "anonymous": false,
      "inputs": [
        {
          "indexed": false,
          "internalType": "address",
          "name": "target",
          "type": "address"
        }
      ],
      "name": "TargetSet",
      "type": "event"
    },
    {
      "inputs": [],
      "name": "CALLDATA_SIZE_LIMIT",
      "outputs": [
        {
          "internalType": "uint256",
          "name": "",
          "type": "uint256"
        }
      ],
      "stateMutability": "view",
      "type": "function",
      "constant": true
    },
    {
      "inputs": [],
      "name": "FORWARDER_HUB_OVERHEAD",
      "outputs": [
        {
          "internalType": "uint256",
          "name": "",
          "type": "uint256"
        }
      ],
      "stateMutability": "view",
      "type": "function",
      "constant": true
    },
    {
      "inputs": [],
      "name": "PAYMASTER_ACCEPTANCE_BUDGET",
      "outputs": [
        {
          "internalType": "uint256",
          "name": "",
          "type": "uint256"
        }
      ],
      "stateMutability": "view",
      "type": "function",
      "constant": true
    },
    {
      "inputs": [],
      "name": "POST_RELAYED_CALL_GAS_LIMIT",
      "outputs": [
        {
          "internalType": "uint256",
          "name": "",
          "type": "uint256"
        }
      ],
      "stateMutability": "view",
      "type": "function",
      "constant": true
    },
    {
      "inputs": [],
      "name": "PRE_RELAYED_CALL_GAS_LIMIT",
      "outputs": [
        {
          "internalType": "uint256",
          "name": "",
          "type": "uint256"
        }
      ],
      "stateMutability": "view",
      "type": "function",
      "constant": true
    },
    {
      "inputs": [
        {
          "components": [
            {
              "components": [
                {
                  "internalType": "address",
                  "name": "from",
                  "type": "address"
                },
                {
                  "internalType": "address",
                  "name": "to",
                  "type": "address"
                },
                {
                  "internalType": "uint256",
                  "name": "value",
                  "type": "uint256"
                },
                {
                  "internalType": "uint256",
                  "name": "gas",
                  "type": "uint256"
                },
                {
                  "internalType": "uint256",
                  "name": "nonce",
                  "type": "uint256"
                },
                {
                  "internalType": "bytes",
                  "name": "data",
                  "type": "bytes"
                },
                {
                  "internalType": "uint256",
                  "name": "validUntil",
                  "type": "uint256"
                }
              ],
              "internalType": "struct IForwarder.ForwardRequest",
              "name": "request",
              "type": "tuple"
            },
            {
              "components": [
                {
                  "internalType": "uint256",
                  "name": "gasPrice",
                  "type": "uint256"
                },
                {
                  "internalType": "uint256",
                  "name": "pctRelayFee",
                  "type": "uint256"
                },
                {
                  "internalType": "uint256",
                  "name": "baseRelayFee",
                  "type": "uint256"
                },
                {
                  "internalType": "address",
                  "name": "relayWorker",
                  "type": "address"
                },
                {
                  "internalType": "address",
                  "name": "paymaster",
                  "type": "address"
                },
                {
                  "internalType": "address",
                  "name": "forwarder",
                  "type": "address"
                },
                {
                  "internalType": "bytes",
                  "name": "paymasterData",
                  "type": "bytes"
                },
                {
                  "internalType": "uint256",
                  "name": "clientId",
                  "type": "uint256"
                }
              ],
              "internalType": "struct GsnTypes.RelayData",
              "name": "relayData",
              "type": "tuple"
            }
          ],
          "internalType": "struct GsnTypes.RelayRequest",
          "name": "relayRequest",
          "type": "tuple"
        }
      ],
      "name": "_verifyForwarder",
      "outputs": [],
      "stateMutability": "view",
      "type": "function",
      "constant": true
    },
    {
      "inputs": [],
      "name": "getGasAndDataLimits",
      "outputs": [
        {
          "components": [
            {
              "internalType": "uint256",
              "name": "acceptanceBudget",
              "type": "uint256"
            },
            {
              "internalType": "uint256",
              "name": "preRelayedCallGasLimit",
              "type": "uint256"
            },
            {
              "internalType": "uint256",
              "name": "postRelayedCallGasLimit",
              "type": "uint256"
            },
            {
              "internalType": "uint256",
              "name": "calldataSizeLimit",
              "type": "uint256"
            }
          ],
          "internalType": "struct IPaymaster.GasAndDataLimits",
          "name": "limits",
          "type": "tuple"
        }
      ],
      "stateMutability": "view",
      "type": "function",
      "constant": true
    },
    {
      "inputs": [],
      "name": "getHubAddr",
      "outputs": [
        {
          "internalType": "address",
          "name": "",
          "type": "address"
        }
      ],
      "stateMutability": "view",
      "type": "function",
      "constant": true
    },
    {
      "inputs": [],
      "name": "getRelayHubDeposit",
      "outputs": [
        {
          "internalType": "uint256",
          "name": "",
          "type": "uint256"
        }
      ],
      "stateMutability": "view",
      "type": "function",
      "constant": true
    },
    {
      "inputs": [],
      "name": "ourTarget",
      "outputs": [
        {
          "internalType": "address",
          "name": "",
          "type": "address"
        }
      ],
      "stateMutability": "view",
      "type": "function",
      "constant": true
    },
    {
      "inputs": [],
      "name": "owner",
      "outputs": [
        {
          "internalType": "address",
          "name": "",
          "type": "address"
        }
      ],
      "stateMutability": "view",
      "type": "function",
      "constant": true
    },
    {
      "inputs": [],
      "name": "renounceOwnership",
      "outputs": [],
      "stateMutability": "nonpayable",
      "type": "function"
    },
    {
      "inputs": [
        {
          "internalType": "contract IRelayHub",
          "name": "hub",
          "type": "address"
        }
      ],
      "name": "setRelayHub",
      "outputs": [],
      "stateMutability": "nonpayable",
      "type": "function"
    },
    {
      "inputs": [
        {
          "internalType": "contract IForwarder",
          "name": "forwarder",
          "type": "address"
        }
      ],
      "name": "setTrustedForwarder",
      "outputs": [],
      "stateMutability": "nonpayable",
      "type": "function"
    },
    {
      "inputs": [
        {
          "internalType": "address",
          "name": "newOwner",
          "type": "address"
        }
      ],
      "name": "transferOwnership",
      "outputs": [],
      "stateMutability": "nonpayable",
      "type": "function"
    },
    {
      "inputs": [],
      "name": "trustedForwarder",
      "outputs": [
        {
          "internalType": "contract IForwarder",
          "name": "",
          "type": "address"
        }
      ],
      "stateMutability": "view",
      "type": "function",
      "constant": true
    },
    {
      "inputs": [
        {
          "internalType": "uint256",
          "name": "amount",
          "type": "uint256"
        },
        {
          "internalType": "address payable",
          "name": "target",
          "type": "address"
        }
      ],
      "name": "withdrawRelayHubDepositTo",
      "outputs": [],
      "stateMutability": "nonpayable",
      "type": "function"
    },
    {
      "stateMutability": "payable",
      "type": "receive",
      "payable": true
    },
    {
      "inputs": [
        {
          "internalType": "address",
          "name": "target",
          "type": "address"
        }
      ],
      "name": "setTarget",
      "outputs": [],
      "stateMutability": "nonpayable",
      "type": "function"
    },
    {
      "inputs": [
        {
          "components": [
            {
              "components": [
                {
                  "internalType": "address",
                  "name": "from",
                  "type": "address"
                },
                {
                  "internalType": "address",
                  "name": "to",
                  "type": "address"
                },
                {
                  "internalType": "uint256",
                  "name": "value",
                  "type": "uint256"
                },
                {
                  "internalType": "uint256",
                  "name": "gas",
                  "type": "uint256"
                },
                {
                  "internalType": "uint256",
                  "name": "nonce",
                  "type": "uint256"
                },
                {
                  "internalType": "bytes",
                  "name": "data",
                  "type": "bytes"
                },
                {
                  "internalType": "uint256",
                  "name": "validUntil",
                  "type": "uint256"
                }
              ],
              "internalType": "struct IForwarder.ForwardRequest",
              "name": "request",
              "type": "tuple"
            },
            {
              "components": [
                {
                  "internalType": "uint256",
                  "name": "gasPrice",
                  "type": "uint256"
                },
                {
                  "internalType": "uint256",
                  "name": "pctRelayFee",
                  "type": "uint256"
                },
                {
                  "internalType": "uint256",
                  "name": "baseRelayFee",
                  "type": "uint256"
                },
                {
                  "internalType": "address",
                  "name": "relayWorker",
                  "type": "address"
                },
                {
                  "internalType": "address",
                  "name": "paymaster",
                  "type": "address"
                },
                {
                  "internalType": "address",
                  "name": "forwarder",
                  "type": "address"
                },
                {
                  "internalType": "bytes",
                  "name": "paymasterData",
                  "type": "bytes"
                },
                {
                  "internalType": "uint256",
                  "name": "clientId",
                  "type": "uint256"
                }
              ],
              "internalType": "struct GsnTypes.RelayData",
              "name": "relayData",
              "type": "tuple"
            }
          ],
          "internalType": "struct GsnTypes.RelayRequest",
          "name": "relayRequest",
          "type": "tuple"
        },
        {
          "internalType": "bytes",
          "name": "signature",
          "type": "bytes"
        },
        {
          "internalType": "bytes",
          "name": "approvalData",
          "type": "bytes"
        },
        {
          "internalType": "uint256",
          "name": "maxPossibleGas",
          "type": "uint256"
        }
      ],
      "name": "preRelayedCall",
      "outputs": [
        {
          "internalType": "bytes",
          "name": "context",
          "type": "bytes"
        },
        {
          "internalType": "bool",
          "name": "",
          "type": "bool"
        }
      ],
      "stateMutability": "nonpayable",
      "type": "function"
    },
    {
      "inputs": [
        {
          "internalType": "bytes",
          "name": "context",
          "type": "bytes"
        },
        {
          "internalType": "bool",
          "name": "success",
          "type": "bool"
        },
        {
          "internalType": "uint256",
          "name": "gasUseWithoutPost",
          "type": "uint256"
        },
        {
          "components": [
            {
              "internalType": "uint256",
              "name": "gasPrice",
              "type": "uint256"
            },
            {
              "internalType": "uint256",
              "name": "pctRelayFee",
              "type": "uint256"
            },
            {
              "internalType": "uint256",
              "name": "baseRelayFee",
              "type": "uint256"
            },
            {
              "internalType": "address",
              "name": "relayWorker",
              "type": "address"
            },
            {
              "internalType": "address",
              "name": "paymaster",
              "type": "address"
            },
            {
              "internalType": "address",
              "name": "forwarder",
              "type": "address"
            },
            {
              "internalType": "bytes",
              "name": "paymasterData",
              "type": "bytes"
            },
            {
              "internalType": "uint256",
              "name": "clientId",
              "type": "uint256"
            }
          ],
          "internalType": "struct GsnTypes.RelayData",
          "name": "relayData",
          "type": "tuple"
        }
      ],
      "name": "postRelayedCall",
      "outputs": [],
      "stateMutability": "nonpayable",
      "type": "function"
    },
    {
      "inputs": [],
      "name": "versionPaymaster",
      "outputs": [
        {
          "internalType": "string",
          "name": "",
          "type": "string"
        }
      ],
      "stateMutability": "view",
      "type": "function",
      "constant": true
    }
  ],
  "bytecode": "0x608060405234801561001057600080fd5b5060006100216100c460201b60201c565b9050806000806101000a81548173ffffffffffffffffffffffffffffffffffffffff021916908373ffffffffffffffffffffffffffffffffffffffff1602179055508073ffffffffffffffffffffffffffffffffffffffff16600073ffffffffffffffffffffffffffffffffffffffff167f8be0079c531659141344cd1fd0a4f28419497f9722a3daafe3b4186f6b6457e060405160405180910390a3506100cc565b600033905090565b611eeb806100db6000396000f3fe60806040526004361061012d5760003560e01c806380d324f1116100ab578063b90b41cf1161006f578063b90b41cf146104d3578063bbdaa3c9146104fe578063da74222814610529578063df463a6614610552578063f2fde38b1461057d578063f9c002f7146105a657610254565b806380d324f1146103fe5780638da5cb5b14610429578063921276ea14610454578063a5dcd07b1461047f578063b039a88f146104a857610254565b806374e861d6116100f257806374e861d61461032d57806376fa01c314610358578063776d1a01146103815780637bb05264146103aa5780637da0a877146103d357610254565b8062be5dd4146102595780632afe31c1146102975780632d14c4b7146102c25780635c5e3db1146102eb578063715018a61461031657610254565b3661025457600073ffffffffffffffffffffffffffffffffffffffff16600160009054906101000a900473ffffffffffffffffffffffffffffffffffffffff1673ffffffffffffffffffffffffffffffffffffffff1614156101c4576040517f08c379a00000000000000000000000000000000000000000000000000000000081526004016101bb906119e5565b60405180910390fd5b600160009054906101000a900473ffffffffffffffffffffffffffffffffffffffff1673ffffffffffffffffffffffffffffffffffffffff1663aa67c91934306040518363ffffffff1660e01b815260040161022091906118fd565b6000604051808303818588803b15801561023957600080fd5b505af115801561024d573d6000803e3d6000fd5b5050505050005b600080fd5b34801561026557600080fd5b50610280600480360381019061027b9190611542565b6105d1565b60405161028e929190611918565b60405180910390f35b3480156102a357600080fd5b506102ac6106c1565b6040516102b99190611a80565b60405180910390f35b3480156102ce57600080fd5b506102e960048036038101906102e4919061165f565b610773565b005b3480156102f757600080fd5b50610300610881565b60405161030d9190611a80565b60405180910390f35b34801561032257600080fd5b5061032b610887565b005b34801561033957600080fd5b506103426109c1565b60405161034f91906118fd565b60405180910390f35b34801561036457600080fd5b5061037f600480360381019061037a91906113fb565b6109eb565b005b34801561038d57600080fd5b506103a860048036038101906103a391906113a1565b610a37565b005b3480156103b657600080fd5b506103d160048036038101906103cc91906114cc565b610b2e565b005b3480156103df57600080fd5b506103e8610bee565b6040516103f59190611948565b60405180910390f35b34801561040a57600080fd5b50610413610c14565b60405161042091906118fd565b60405180910390f35b34801561043557600080fd5b5061043e610c3a565b60405161044b91906118fd565b60405180910390f35b34801561046057600080fd5b50610469610c63565b6040516104769190611963565b60405180910390f35b34801561048b57600080fd5b506104a660048036038101906104a191906114f9565b610ca0565b005b3480156104b457600080fd5b506104bd610d5d565b6040516104ca9190611a65565b60405180910390f35b3480156104df57600080fd5b506104e8610da3565b6040516104f59190611a80565b60405180910390f35b34801561050a57600080fd5b50610513610da9565b6040516105209190611a80565b60405180910390f35b34801561053557600080fd5b50610550600480360381019061054b919061149f565b610db0565b005b34801561055e57600080fd5b50610567610e70565b6040516105749190611a80565b60405180910390f35b34801561058957600080fd5b506105a4600480360381019061059f91906113a1565b610e84565b005b3480156105b257600080fd5b506105bb61102d565b6040516105c89190611a80565b60405180910390f35b606060006105de88610ca0565b600360009054906101000a900473ffffffffffffffffffffffffffffffffffffffff1673ffffffffffffffffffffffffffffffffffffffff168880600001906106279190611ac4565b602001602081019061063991906113a1565b73ffffffffffffffffffffffffffffffffffffffff161461065957600080fd5b7f1fab8d24eefec3578055fc7f1c7cce1b10153c6731e0b5ca8147e8916d884b45426040516106889190611a80565b60405180910390a1426040516020016106a19190611a80565b604051602081830303815290604052600091509150965096945050505050565b6000600160009054906101000a900473ffffffffffffffffffffffffffffffffffffffff1673ffffffffffffffffffffffffffffffffffffffff166370a08231306040518263ffffffff1660e01b815260040161071e91906118fd565b60206040518083038186803b15801561073657600080fd5b505afa15801561074a573d6000803e3d6000fd5b505050506040513d601f19601f8201168201806040525081019061076e9190611632565b905090565b61077b611034565b73ffffffffffffffffffffffffffffffffffffffff16610799610c3a565b73ffffffffffffffffffffffffffffffffffffffff16146107ef576040517f08c379a00000000000000000000000000000000000000000000000000000000081526004016107e690611a45565b60405180910390fd5b600160009054906101000a900473ffffffffffffffffffffffffffffffffffffffff1673ffffffffffffffffffffffffffffffffffffffff1662f714ce83836040518363ffffffff1660e01b815260040161084b929190611a9b565b600060405180830381600087803b15801561086557600080fd5b505af1158015610879573d6000803e3d6000fd5b505050505050565b61290481565b61088f611034565b73ffffffffffffffffffffffffffffffffffffffff166108ad610c3a565b73ffffffffffffffffffffffffffffffffffffffff1614610903576040517f08c379a00000000000000000000000000000000000000000000000000000000081526004016108fa90611a45565b60405180910390fd5b600073ffffffffffffffffffffffffffffffffffffffff1660008054906101000a900473ffffffffffffffffffffffffffffffffffffffff1673ffffffffffffffffffffffffffffffffffffffff167f8be0079c531659141344cd1fd0a4f28419497f9722a3daafe3b4186f6b6457e060405160405180910390a360008060006101000a81548173ffffffffffffffffffffffffffffffffffffffff021916908373ffffffffffffffffffffffffffffffffffffffff160217905550565b6000600160009054906101000a900473ffffffffffffffffffffffffffffffffffffffff16905090565b7f142c6d2c03c5b3fcbb162bc0e230bbaae8c9032eb624a8fd44658e00efa63c908585810190610a1b9190611605565b604051610a289190611a80565b60405180910390a15050505050565b610a3f611034565b73ffffffffffffffffffffffffffffffffffffffff16610a5d610c3a565b73ffffffffffffffffffffffffffffffffffffffff1614610ab3576040517f08c379a0000000000000000000000000000000000000000000000000000000008152600401610aaa90611a45565b60405180910390fd5b80600360006101000a81548173ffffffffffffffffffffffffffffffffffffffff021916908373ffffffffffffffffffffffffffffffffffffffff1602179055507f3bfb4bbf112628248058745a3c57e35b13369386e474b8e56c552f3063a4a19681604051610b2391906118fd565b60405180910390a150565b610b36611034565b73ffffffffffffffffffffffffffffffffffffffff16610b54610c3a565b73ffffffffffffffffffffffffffffffffffffffff1614610baa576040517f08c379a0000000000000000000000000000000000000000000000000000000008152600401610ba190611a45565b60405180910390fd5b80600160006101000a81548173ffffffffffffffffffffffffffffffffffffffff021916908373ffffffffffffffffffffffffffffffffffffffff16021790555050565b600260009054906101000a900473ffffffffffffffffffffffffffffffffffffffff1681565b600360009054906101000a900473ffffffffffffffffffffffffffffffffffffffff1681565b60008060009054906101000a900473ffffffffffffffffffffffffffffffffffffffff16905090565b60606040518060400160405280600581526020017f322e322e30000000000000000000000000000000000000000000000000000000815250905090565b808060200190610cb09190611aec565b60a0016020810190610cc291906113a1565b73ffffffffffffffffffffffffffffffffffffffff16600260009054906101000a900473ffffffffffffffffffffffffffffffffffffffff1673ffffffffffffffffffffffffffffffffffffffff1614610d51576040517f08c379a0000000000000000000000000000000000000000000000000000000008152600401610d4890611a05565b60405180910390fd5b610d5a8161103c565b50565b610d6561123c565b604051806080016040528061c350620186a0610d819190611b58565b8152602001620186a081526020016201adb08152602001612904815250905090565b61c35081565b6201adb081565b610db8611034565b73ffffffffffffffffffffffffffffffffffffffff16610dd6610c3a565b73ffffffffffffffffffffffffffffffffffffffff1614610e2c576040517f08c379a0000000000000000000000000000000000000000000000000000000008152600401610e2390611a45565b60405180910390fd5b80600260006101000a81548173ffffffffffffffffffffffffffffffffffffffff021916908373ffffffffffffffffffffffffffffffffffffffff16021790555050565b61c350620186a0610e819190611b58565b81565b610e8c611034565b73ffffffffffffffffffffffffffffffffffffffff16610eaa610c3a565b73ffffffffffffffffffffffffffffffffffffffff1614610f00576040517f08c379a0000000000000000000000000000000000000000000000000000000008152600401610ef790611a45565b60405180910390fd5b600073ffffffffffffffffffffffffffffffffffffffff168173ffffffffffffffffffffffffffffffffffffffff161415610f70576040517f08c379a0000000000000000000000000000000000000000000000000000000008152600401610f67906119a5565b60405180910390fd5b8073ffffffffffffffffffffffffffffffffffffffff1660008054906101000a900473ffffffffffffffffffffffffffffffffffffffff1673ffffffffffffffffffffffffffffffffffffffff167f8be0079c531659141344cd1fd0a4f28419497f9722a3daafe3b4186f6b6457e060405160405180910390a3806000806101000a81548173ffffffffffffffffffffffffffffffffffffffff021916908373ffffffffffffffffffffffffffffffffffffffff16021790555050565b620186a081565b600033905090565b60008082806000019061104f9190611ac4565b602001602081019061106191906113a1565b73ffffffffffffffffffffffffffffffffffffffff1663572b6c0560e01b84806020019061108f9190611aec565b60a00160208101906110a191906113a1565b6040516024016110b191906118fd565b604051602081830303815290604052907bffffffffffffffffffffffffffffffffffffffffffffffffffffffff19166020820180517bffffffffffffffffffffffffffffffffffffffffffffffffffffffff838183161783525050505060405161111b91906118e6565b600060405180830381855afa9150503d8060008114611156576040519150601f19603f3d011682016040523d82523d6000602084013e61115b565b606091505b5091509150816111a0576040517f08c379a0000000000000000000000000000000000000000000000000000000008152600401611197906119c5565b60405180910390fd5b60208151146111e4576040517f08c379a00000000000000000000000000000000000000000000000000000000081526004016111db90611a25565b60405180910390fd5b808060200190518101906111f891906113ce565b611237576040517f08c379a000000000000000000000000000000000000000000000000000000000815260040161122e90611985565b60405180910390fd5b505050565b6040518060800160405280600081526020016000815260200160008152602001600081525090565b60008135905061127381611e2b565b92915050565b60008135905061128881611e42565b92915050565b60008135905061129d81611e59565b92915050565b6000815190506112b281611e59565b92915050565b60008083601f8401126112ce576112cd611cb7565b5b8235905067ffffffffffffffff8111156112eb576112ea611cb2565b5b60208301915083600182028301111561130757611306611cc6565b5b9250929050565b60008135905061131d81611e70565b92915050565b60008135905061133281611e87565b92915050565b6000610100828403121561134f5761134e611cbc565b5b81905092915050565b60006040828403121561136e5761136d611cbc565b5b81905092915050565b60008135905061138681611e9e565b92915050565b60008151905061139b81611e9e565b92915050565b6000602082840312156113b7576113b6611cd0565b5b60006113c584828501611264565b91505092915050565b6000602082840312156113e4576113e3611cd0565b5b60006113f2848285016112a3565b91505092915050565b60008060008060006080868803121561141757611416611cd0565b5b600086013567ffffffffffffffff81111561143557611434611ccb565b5b611441888289016112b8565b955095505060206114548882890161128e565b935050604061146588828901611377565b925050606086013567ffffffffffffffff81111561148657611485611ccb565b5b61149288828901611338565b9150509295509295909350565b6000602082840312156114b5576114b4611cd0565b5b60006114c38482850161130e565b91505092915050565b6000602082840312156114e2576114e1611cd0565b5b60006114f084828501611323565b91505092915050565b60006020828403121561150f5761150e611cd0565b5b600082013567ffffffffffffffff81111561152d5761152c611ccb565b5b61153984828501611358565b91505092915050565b6000806000806000806080878903121561155f5761155e611cd0565b5b600087013567ffffffffffffffff81111561157d5761157c611ccb565b5b61158989828a01611358565b965050602087013567ffffffffffffffff8111156115aa576115a9611ccb565b5b6115b689828a016112b8565b9550955050604087013567ffffffffffffffff8111156115d9576115d8611ccb565b5b6115e589828a016112b8565b935093505060606115f889828a01611377565b9150509295509295509295565b60006020828403121561161b5761161a611cd0565b5b600061162984828501611377565b91505092915050565b60006020828403121561164857611647611cd0565b5b60006116568482850161138c565b91505092915050565b6000806040838503121561167657611675611cd0565b5b600061168485828601611377565b925050602061169585828601611279565b9150509250929050565b6116a881611bc0565b82525050565b6116b781611bae565b82525050565b6116c681611bd2565b82525050565b60006116d782611b15565b6116e18185611b2b565b93506116f1818560208601611c50565b6116fa81611cd5565b840191505092915050565b600061171082611b15565b61171a8185611b3c565b935061172a818560208601611c50565b80840191505092915050565b61173f81611c2c565b82525050565b600061175082611b20565b61175a8185611b47565b935061176a818560208601611c50565b61177381611cd5565b840191505092915050565b600061178b601f83611b47565b915061179682611ce6565b602082019050919050565b60006117ae602683611b47565b91506117b982611d0f565b604082019050919050565b60006117d1601c83611b47565b91506117dc82611d5e565b602082019050919050565b60006117f4601983611b47565b91506117ff82611d87565b602082019050919050565b6000611817601883611b47565b915061182282611db0565b602082019050919050565b600061183a602083611b47565b915061184582611dd9565b602082019050919050565b600061185d602083611b47565b915061186882611e02565b602082019050919050565b60808201600082015161188960008501826118c8565b50602082015161189c60208501826118c8565b5060408201516118af60408501826118c8565b5060608201516118c260608501826118c8565b50505050565b6118d181611c22565b82525050565b6118e081611c22565b82525050565b60006118f28284611705565b915081905092915050565b600060208201905061191260008301846116ae565b92915050565b6000604082019050818103600083015261193281856116cc565b905061194160208301846116bd565b9392505050565b600060208201905061195d6000830184611736565b92915050565b6000602082019050818103600083015261197d8184611745565b905092915050565b6000602082019050818103600083015261199e8161177e565b9050919050565b600060208201905081810360008301526119be816117a1565b9050919050565b600060208201905081810360008301526119de816117c4565b9050919050565b600060208201905081810360008301526119fe816117e7565b9050919050565b60006020820190508181036000830152611a1e8161180a565b9050919050565b60006020820190508181036000830152611a3e8161182d565b9050919050565b60006020820190508181036000830152611a5e81611850565b9050919050565b6000608082019050611a7a6000830184611873565b92915050565b6000602082019050611a9560008301846118d7565b92915050565b6000604082019050611ab060008301856118d7565b611abd602083018461169f565b9392505050565b60008235600160e003833603038112611ae057611adf611cc1565b5b80830191505092915050565b60008235600161010003833603038112611b0957611b08611cc1565b5b80830191505092915050565b600081519050919050565b600081519050919050565b600082825260208201905092915050565b600081905092915050565b600082825260208201905092915050565b6000611b6382611c22565b9150611b6e83611c22565b9250827fffffffffffffffffffffffffffffffffffffffffffffffffffffffffffffffff03821115611ba357611ba2611c83565b5b828201905092915050565b6000611bb982611c02565b9050919050565b6000611bcb82611c02565b9050919050565b60008115159050919050565b6000611be982611bae565b9050919050565b6000611bfb82611bae565b9050919050565b600073ffffffffffffffffffffffffffffffffffffffff82169050919050565b6000819050919050565b6000611c3782611c3e565b9050919050565b6000611c4982611c02565b9050919050565b60005b83811015611c6e578082015181840152602081019050611c53565b83811115611c7d576000848401525b50505050565b7f4e487b7100000000000000000000000000000000000000000000000000000000600052601160045260246000fd5b600080fd5b600080fd5b600080fd5b600080fd5b600080fd5b600080fd5b600080fd5b6000601f19601f8301169050919050565b7f696e76616c696420666f7277617264657220666f7220726563697069656e7400600082015250565b7f4f776e61626c653a206e6577206f776e657220697320746865207a65726f206160008201527f6464726573730000000000000000000000000000000000000000000000000000602082015250565b7f697354727573746564466f727761726465723a20726576657274656400000000600082015250565b7f72656c6179206875622061646472657373206e6f742073657400000000000000600082015250565b7f466f72776172646572206973206e6f7420747275737465640000000000000000600082015250565b7f697354727573746564466f727761726465723a2062616420726573706f6e7365600082015250565b7f4f776e61626c653a2063616c6c6572206973206e6f7420746865206f776e6572600082015250565b611e3481611bae565b8114611e3f57600080fd5b50565b611e4b81611bc0565b8114611e5657600080fd5b50565b611e6281611bd2565b8114611e6d57600080fd5b50565b611e7981611bde565b8114611e8457600080fd5b50565b611e9081611bf0565b8114611e9b57600080fd5b50565b611ea781611c22565b8114611eb257600080fd5b5056fea264697066735822122036f07876c33f446af6941b261c81fda3d98a7a77b3875f21ae73fdec81aeb0da64736f6c63430008060033",
  "immutableReferences": {},
  "source": "pragma solidity >=0.7.6;\r\npragma experimental ABIEncoderV2;\r\n\r\n// SPDX-License-Identifier: MIT OR Apache-2.0\r\n\r\nimport \"@opengsn/contracts/src/forwarder/IForwarder.sol\";\r\nimport \"@opengsn/contracts/src/BasePaymaster.sol\";\r\n\r\ncontract Paymaster is BasePaymaster {\r\n\taddress public ourTarget;   // The target contract we are willing to pay for\r\n\r\n\t// allow the owner to set ourTarget\r\n\tevent TargetSet(address target);\r\n\tfunction setTarget(address target) external onlyOwner {\r\n\t\tourTarget = target;\r\n\t\temit TargetSet(target);\r\n\t}\r\n\r\n\tevent PreRelayed(uint);\r\n\tevent PostRelayed(uint);\r\n\r\n\r\n\tfunction preRelayedCall(\r\n\t\tGsnTypes.RelayRequest calldata relayRequest,\r\n\t\tbytes calldata signature,\r\n\t\tbytes calldata approvalData,\r\n\t\tuint256 maxPossibleGas\r\n\t) external override virtual\r\n\treturns (bytes memory context, bool) {\r\n\t\t_verifyForwarder(relayRequest);\r\n\t\t(signature, approvalData, maxPossibleGas);\r\n\t\t\r\n\t\trequire(relayRequest.request.to == ourTarget);\r\n\t\temit PreRelayed(block.timestamp);\r\n                return (abi.encode(block.timestamp), false);\r\n\t}\r\n\r\n\tfunction postRelayedCall(\r\n\t\tbytes calldata context,\r\n\t\tbool success,\r\n\t\tuint256 gasUseWithoutPost,\r\n\t\tGsnTypes.RelayData calldata relayData\r\n\t) external override virtual {\r\n                (context, success, gasUseWithoutPost, relayData);\r\n\t\temit PostRelayed(abi.decode(context, (uint)));\r\n\t}\r\n\r\n  function versionPaymaster() external virtual view override returns (string memory) {\r\n    return \"2.2.0\";\r\n  }\r\n\r\n}",
  "sourcePath": "C:/Users/Jo le Rigolo/Documents/EFREI/projets/projet-mastercamp/frontend/contracts/Paymaster.sol",
  "compiler": {
    "name": "solc",
    "version": "0.8.6+commit.11564f7e.Emscripten.clang"
  },
  "schemaVersion": "3.4.1",
  "updatedAt": "2021-07-02T13:09:19.426Z",
  "networkType": "ethereum",
  "devdoc": {
    "kind": "dev",
    "methods": {
      "owner()": {
        "details": "Returns the address of the current owner."
      },
      "postRelayedCall(bytes,bool,uint256,(uint256,uint256,uint256,address,address,address,bytes,uint256))": {
        "params": {
          "context": "- the call context, as returned by the preRelayedCall",
          "gasUseWithoutPost": "- the actual amount of gas used by the entire transaction, EXCEPT        the gas used by the postRelayedCall itself.",
          "relayData": "- the relay params of the request. can be used by relayHub.calculateCharge() Revert in this functions causes a revert of the client's relayed call (and preRelayedCall(), but the Paymaster is still committed to pay the relay for the entire transaction.",
          "success": "- true if the relayed call succeeded, false if it reverted"
        }
      },
      "preRelayedCall(((address,address,uint256,uint256,uint256,bytes,uint256),(uint256,uint256,uint256,address,address,address,bytes,uint256)),bytes,bytes,uint256)": {
        "params": {
          "approvalData": "- extra dapp-specific data (e.g. signature from trusted party)",
          "maxPossibleGas": "- based on values returned from {@link getGasAndDataLimits},         the RelayHub will calculate the maximum possible amount of gas the user may be charged for.         In order to convert this value to wei, the Paymaster has to call \"relayHub.calculateCharge()\"  return:      a context to be passed to postRelayedCall      rejectOnRecipientRevert - TRUE if paymaster want to reject the TX if the recipient reverts.          FALSE means that rejects by the recipient will be completed on chain, and paid by the paymaster.          (note that in the latter case, the preRelayedCall and postRelayedCall are not reverted).",
          "relayRequest": "- the full relay request structure",
          "signature": "- user's EIP712-compatible signature of the {@link relayRequest}.              Note that in most cases the paymaster shouldn't try use it at all. It is always checked              by the forwarder immediately after preRelayedCall returns."
        }
      },
      "renounceOwnership()": {
        "details": "Leaves the contract without owner. It will not be possible to call `onlyOwner` functions anymore. Can only be called by the current owner. NOTE: Renouncing ownership will leave the contract without an owner, thereby removing any functionality that is only available to the owner."
      },
      "transferOwnership(address)": {
        "details": "Transfers ownership of the contract to a new account (`newOwner`). Can only be called by the current owner."
      }
    },
    "version": 1
  },
  "userdoc": {
    "kind": "user",
    "methods": {
      "getGasAndDataLimits()": {
        "notice": "Return the Gas Limits and msg.data max size constants used by the Paymaster."
      },
      "getHubAddr()": {
        "notice": "return the relayHub of this contract."
      },
      "getRelayHubDeposit()": {
        "notice": "check current deposit on relay hub."
      },
      "postRelayedCall(bytes,bool,uint256,(uint256,uint256,uint256,address,address,address,bytes,uint256))": {
        "notice": "This method is called after the actual relayed function call. It may be used to record the transaction (e.g. charge the caller by some contract logic) for this call. MUST be protected with relayHubOnly() in case it modifies state."
      },
      "preRelayedCall(((address,address,uint256,uint256,uint256,bytes,uint256),(uint256,uint256,uint256,address,address,address,bytes,uint256)),bytes,bytes,uint256)": {
        "notice": "Called by Relay (and RelayHub), to validate if the paymaster agrees to pay for this call. MUST be protected with relayHubOnly() in case it modifies state. The Paymaster rejects by the following \"revert\" operations  - preRelayedCall() method reverts  - the forwarder reverts because of nonce or signature error  - the paymaster returned \"rejectOnRecipientRevert\", and the recipient contract reverted. In any of the above cases, all paymaster calls (and recipient call) are reverted. In any other case, the paymaster agrees to pay for the gas cost of the transaction (note  that this includes also postRelayedCall revert) The rejectOnRecipientRevert flag means the Paymaster \"delegate\" the rejection to the recipient  code.  It also means the Paymaster trust the recipient to reject fast: both preRelayedCall,  forwarder check and receipient checks must fit into the GasLimits.acceptanceBudget,  otherwise the TX is paid by the Paymaster."
      },
      "withdrawRelayHubDepositTo(uint256,address)": {
        "notice": "withdraw deposit from relayHub"
      }
    },
    "version": 1
  }
}